:020000040000FA
:06000000EEEF02F0120019
:0A0006000100FA0500008000000070
:0400100011000000DB
:0C001400D9CFE6FFE1CFD9FFE652000192
:100020008251040DF3CF03F08151080DF3CF02F09C
:100030008039F00B200902100310DF6EDFCFE6FFDE
:10004000E66A4FD8E552E552E552E552E7CFD9FFCF
:100050001200D9CFE6FFE1CFD9FFE652000184516B
:10006000E824026E8351040DF35008090210851133
:10007000DF6EDFCFE6FFE66A34D8E552E552E5529F
:10008000E552E7CFD9FF1200010EE66EE66A29D8E5
:10009000E552E5521200D9CFE6FFE1CFD9FFFD0EC0
:1000A000DB500F0801E20CD0FD0EDBCFE6FFFE0EA9
:1000B000DB50E552E724E66EE66A13D8E552E552D6
:1000C000E552E7CFD9FF12008B8E8B9E010EE66EB4
:1000D000E66AE66AE66A20D8E552E552E552E5525C
:1000E0001200D9CFE6FFE1CFD9FFFE0EDB50E8B01A
:1000F0008B8AE8A08B9A8B9CFD0EDB508C6EE4DF24
:100100000001805105E1FD0EDB38F00B8C6EDCDF69
:10011000E552E7CFD9FF1200D9CFE6FFE1CFD9FFF3
:10012000E652D950FB0FE96EFF0EDA20EA6ED88056
:10013000000EEE54000EEE54000EEE54000EEE547F
:100140001AE2DF6ADF50026E036AD890035004E6B9
:10015000910E025C000E035802E2DF2AF3D7D95059
:10016000FB0FE96EFF0EDA20EA6EEE06000EEE5A85
:10017000EE5AEE5AD6D7E552E552E7CFD9FF120034
:100180009498949A949C949E929092929294938034
:10019000938293849386956A0F0EC16E1200C80EE7
:1001A000E66EE66AE66AE66AB7DFE552E552E552D0
:1001B000E5520001805106E1020EE66EE66A91DF2B
:1001C000E552E55227DF45DF0001805108E1845107
:1001D000E8240409E66EE66A84DFE552E55244EF5E
:1001E00000F0D9CFE6FFE1CFD9FF020EE126DF6AAA
:1001F000DE52010EDD6EDF6ADFCF02F0080EE76E21
:100200000218E8AE02D0E73402D0E750025C1BE2ED
:10021000DFCFE9FFEA6AE9BEEA68860EE926000E4A
:10022000EA22EFCF02F0DFCFE9FFEA6AE9BEEA682F
:100230009B0EE926000EEA22EF50025C02E0010E5E
:10024000DB6ADF2AD9D7010EDBCFE6FF0BD8E552F8
:10025000020EE15C02E2E16AE552E16EE552E7CFAF
:10026000D9FF1200D9CFE6FFE1CFD9FF0DDFE66A53
:10027000800EE66E10DFE552E552FE0EDB502CE0FC
:10028000410EE66E010EE66E2CDFE552E552430E9E
:10029000E66E010EE66E25DFE552E552450EE66E8E
:1002A000010EE66E1EDFE552E552490EE66E010EC6
:1002B000E66E17DFE552E552540EE66E010EE66E6D
:1002C00010DFE552E5524F0EE66E010EE66E09DFD5
:1002D000E552E5528B882BD04E0EE66E010EE66E8F
:1002E00000DFE552E552450EE66E010EE66EF9DEE0
:1002F000E552E552470EE66E010EE66EF2DEE5527D
:10030000E552410EE66E010EE66EEBDEE552E55279
:10031000440EE66E010EE66EE4DEE552E5524F0E47
:10032000E66E010EE66EDDDEE552E5528B98E55293
:10033000E7CFD9FF1200D9CFE6FFE1CFD9FF8FC0B9
:10034000E9FFEA6AE9BEEA689B0EE926000EEA22A6
:10035000FE0EDBCFEFFF00018F2B080E8F5D02E159
:100360008F6B3FDFE552E7CFD9FF1200D9CFE6FF11
:10037000E1CFD9FF030EE1268150010B0AE0815045
:10038000020B07E08150040B04E08150080B01E0F0
:100390004DD081B00AD0310EDF6EDE52320EDD6EEE
:1003A000330EF36E020EF3CFDBFF81B20AD0340EB0
:1003B000DF6EDE52350EDD6E360EF36E020EF3CFBB
:1003C000DBFF81B40AD0370EDF6EDE52380EDD6EF1
:1003D000390EF36E020EF3CFDBFF81B60AD02A0E80
:1003E000DF6EDE52300EDD6E230EF36E020EF3CFA3
:1003F000DBFF8150010B09E08150020B06E08150C8
:10040000040B03E08150080B01E1F3D7D9CF02F0D0
:10041000DACF03F0FD0EDB500224E96EFE0EDB5056
:100420000320EA6EEF50E66E86DFE552030EE15CD4
:1004300002E2E16AE552E16EE552E7CFD9FF120030
:100440000001905104E18990898289840CD0900543
:1004500004E189808992898406D0020E905D03E1CF
:1004600089808982899490C002F0036A02BE036881
:1004700002C0E6FF03C0E6FF79DFE552E552000166
:10048000902B020EE76E9019E8AE02D0903503D0A3
:10049000E750D880905501E2906B1200D9CFE6FF6B
:1004A000E1CFD9FFE652DF6AEFDDE66A800EE66E45
:1004B000F2DDE552E552DF6ADFCF02F0080EE76EAB
:1004C0000218E8AE02D0E73402D0E750025C12E234
:1004D000DFCFE9FFEA6AE9BEEA689B0EE926000E73
:1004E000EA22EF50E66E010EE66EFBDDE552E552C4
:1004F000DF2AE2D7E552E552E7CFD9FF120040DE0E
:100500004EDE010EE66EE66AE66AE66A05DEE55252
:0E051000E552E552E55294DFC1DFF3D7120049
:02051E00060EC7
:10052000F66E000EF76E000EF86E00010900F55031
:10053000966F0900F550976F03E1966701D03DD0A3
:100540000900F550916F0900F550926F0900F550C0
:10055000936F09000900F550E96E0900F550EA6E45
:10056000090009000900F550946F0900F550956FD6
:1005700009000900F6CF98F0F7CF99F0F8CF9AF07C
:1005800091C0F6FF92C0F7FF93C0F8FF00019453AB
:1005900002E1955307E00900F550EE6E9407F8E28A
:1005A0009507F9D798C0F6FF99C0F7FF9AC0F8FFF2
:0C05B00000019607000E975BBFD71200F9
:0405BC00000EF36ECC
:1005C00000EE00F0060E01D81200EA6002D0EE6ADA
:0C05D000FCD7F350E9601200EE6AFCD783
:0405DC0015EE00F028
:1005E00025EE00F0F86A019C8FEC02F0FCEC02F0C2
:0805F0007FEC02F0FBD71200C2
:0205F8001200EF
:0605FA00000100010000F9
:0B060000313233232A3435360000006D
:00000001FF
