:020000040000FA
:060000001BEF01F01200ED
:020006000000F8
:08000800D9CFE6FFE1CFD9FFDB
:10001000040EE126FD0EDBCF02F0FE0EDBCF03F077
:10002000033404E202500008000E035423E2DE6AA7
:10003000DE6ADE6ADD6ADD52DD52D9CFE9FFDACF52
:10004000EAFF850EEE5C450EEE58010EEE58000EEE
:10005000EE580AE2D9CFE9FFDACFEAFFEE2A000E26
:10006000EE22EE22EE22E9D7FD0EDB06FE0E01E2C5
:10007000DB06D0D7040EE15C02E2E16AE552E16EF4
:10008000E552E7CFD9FF1200D9CFE6FFE1CFD9FF84
:10009000020EE126FD0EDBCF02F0FE0EDBCF03F0F9
:1000A000033404E202500008000E035416E2DE6A34
:1000B000DD6ADECF02F0DDCF03F0110E025C020E2E
:1000C000035805E2DF2A010E01E3DB2AF2D7FD0E19
:1000D000DB06FE0E01E2DB06DDD7020EE15C02E28A
:1000E000E16AE552E16EE552E7CFD9FF1200D9CFC0
:1000F000E6FFE1CFD9FFE652DF6A1C0EDF5C02E2C9
:10010000DF2AFBD7E552E552E7CFD9FF1200D9CF5E
:10011000E6FFE1CFD9FFE652DF6A030EDF5C02E2C1
:10012000DF2AFBD7E552E552E7CFD9FF1200D9CF3E
:10013000E6FFE1CFD9FF8B80010EE66EE66AA4DF11
:10014000E552E552FE0EDB50000804E2E0DFFE0E51
:10015000DB06F8D78B90E552E7CFD9FF12009490D9
:10016000B10EE66EE4DFE552140EE66EE66A8CDF51
:08017000E552E552F5D712003B
:08017800060EF66E000EF76E94
:10018000000EF86E00010900F550856F0900F5506A
:10019000866F03E1856701D03DD00900F550806F7F
:1001A0000900F550816F0900F550826F09000900C0
:1001B000F550E96E0900F550EA6E090009000900E2
:1001C000F550836F0900F550846F09000900F6CFE0
:1001D00087F0F7CF88F0F8CF89F080C0F6FF81C0B4
:1001E000F7FF82C0F8FF0001835302E1845307E068
:1001F0000900F550EE6E8307F8E28407F9D787C04F
:10020000F6FF88C0F7FF89C0F8FF00018507000EE0
:06021000865BBFD712005F
:0A021600000EF36E00EE00F0060E7D
:1002200001D81200EA6002D0EE6AFCD7F350E96010
:060230001200EE6AFCD78B
:0A02360015EE00F025EE00F0F86A66
:10024000019CBCEC00F029EC01F0AFEC00F0FBD716
:0202500012009A
:02025200120098
:00000001FF
