:020000040000FA
:0600000077EF01F0120091
:0A00060001000C0300008A00000056
:0400100006000000E6
:0C001400D9CFE6FFE1CFD9FFE652000192
:100020008C51040DF3CF03F08B51080DF3CF02F088
:100030008A39F00B200902100310DF6EDFCFE6FFD4
:10004000E66A49D8E552E552E552E552E7CFD9FFD5
:100050001200D9CFE6FFE1CFD9FFE65200018E5161
:10006000E824026E8D51040DF350080902108F111F
:10007000DF6EDFCFE6FFE66A2ED8E552E552E552A5
:10008000E552E7CFD9FF1200010EE66EE66A23D8EB
:10009000E552E5521200D9CFE6FFE1CFD9FFFD0EC0
:1000A000DB500F0801E20CD0FD0EDBCFE6FFFE0EA9
:1000B000DB50E552E724E66EE66A0DD8E552E552DC
:1000C000E552E7CFD9FF12008B8E8B9E010EE66EB4
:1000D0001DD8E5521200D9CFE6FFE1CFD9FFFE0EC1
:1000E000DB50E8B08B8AE8A08B9A8B9CFD0EDB502E
:1000F0008C6EEADF00018A5105E1FD0EDB38F00B62
:100100008C6EE2DFE552E7CFD9FF1200D9CFE6FFD0
:10011000E1CFD9FF020EE126FE0EDBCF02F0000E8A
:10012000E76E0218E8AE02D0023403D0E750D88060
:10013000025413E2DE6ADD6ADECF02F0DDCF03F0A7
:10014000DC0E025C050E035805E2DF2A010E01E316
:10015000DB2AF2D7FE0EDB06DFD7020EE15C02E2FD
:10016000E16AE552E16EE552E7CFD9FF1200949AB9
:10017000949C949E929492929290956A936A0F0E98
:10018000C16E1200C80EE66EC1DFE55200018A5151
:1001900006E1020EE66EE66A9EDFE552E5523ADFC0
:1001A00058DF00018A5108E18E51E8240409E66E07
:1001B000E66A91DFE552E55244EF00F0D8DFE2DF76
:1001C000400EE66EE66A67DFE552E5521F0EE66E08
:1001D000E66A81DFE552E552110EE66EE66A7BDFE4
:1001E000E552E552110EE66EE66A75DFE552E5521C
:1001F000150EE66EE66A6FDFE552E552110EE66E09
:10020000E66A69DFE552E552110EE66EE66A63DFE3
:10021000E552E552110EE66EE66A5DDFE552E55203
:100220001F0EE66EE66A57DFE552E552C9D71200A7
:10023000060EF66E000EF76E000EF86E0001090055
:10024000F550856F0900F550866F03E1856701D091
:100250003DD00900F550806F0900F550816F09000D
:10026000F550826F09000900F550E96E0900F5505C
:10027000EA6E090009000900F550836F0900F55086
:10028000846F09000900F6CF87F0F7CF88F0F8CF28
:1002900089F080C0F6FF81C0F7FF82C0F8FF00013F
:1002A000835302E1845307E00900F550EE6E8307A3
:1002B000F8E28407F9D787C0F6FF88C0F7FF89C046
:0E02C000F8FF00018507000E865BBFD7120015
:0202CE00000E20
:1002D000F36E00EE00F0060E01D81200EA6002D0C4
:0E02E000EE6AFCD7F350E9601200EE6AFCD71C
:0202EE0015EE0B
:1002F00000F025EE00F0F86A019C18EC01F085ECA6
:0A03000001F0DEEC00F0FBD7120064
:02030A001200DF
:04030C0000010001EB
:020310000000EB
:00000001FF
