:020000040000FA
:060000008EEF00F012007B
:020006000000F8
:08000800060EF66E000EF76E05
:10001000000EF86E00010900F550856F0900F550DB
:10002000866F03E1856701D03DD00900F550806FF0
:100030000900F550816F0900F550826F0900090031
:10004000F550E96E0900F550EA6E09000900090053
:10005000F550836F0900F550846F09000900F6CF51
:1000600087F0F7CF88F0F8CF89F080C0F6FF81C025
:10007000F7FF82C0F8FF0001835302E1845307E0D9
:100080000900F550EE6E8307F8E28407F9D787C0C0
:10009000F6FF88C0F7FF89C0F8FF00018507000E52
:0600A000865BBFD71200D1
:0A00A600D9CFE6FFE1CFD9FF020E2B
:1000B000E126DE6ADD6ADECF00F0DDCF01F0026A04
:1000C000D8900250010A06E6900E005C5F0E0158BF
:1000D000010E025805E2DF2A010E01E3DB2AEBD70D
:1000E000020EE15C02E2E16AE552E16EE552E7CF21
:0C00F000D9FF12001200FEDFFFD7120043
:0400FC00000EF36E91
:1001000000EE00F0060E01D81200EA6002D0EE6A9E
:0C011000FCD7F350E9601200EE6AFCD747
:04011C0015EE00F0EC
:1001200025EE00F0F86A049C04EC00F09CEC00F072
:080130007BEC00F0FBD712008C
:020138001200B3
:00000001FF
