:020000040000FA
:0600000081EF03F0120085
:0A0006000100200700008A0000003E
:0400100006000000E6
:0C001400D9CFE6FFE1CFD9FFE652000192
:100020008C51040DF3CF03F08B51080DF3CF02F088
:100030008A39F00B200902100310DF6EDFCFE6FFD4
:10004000E66A4FD8E552E552E552E552E7CFD9FFCF
:100050001200D9CFE6FFE1CFD9FFE65200018E5161
:10006000E824026E8D51040DF350080902108F111F
:10007000DF6EDFCFE6FFE66A34D8E552E552E5529F
:10008000E552E7CFD9FF1200010EE66EE66A29D8E5
:10009000E552E5521200D9CFE6FFE1CFD9FFFD0EC0
:1000A000DB500F0801E20CD0FD0EDBCFE6FFFE0EA9
:1000B000DB50E552E724E66EE66A13D8E552E552D6
:1000C000E552E7CFD9FF12008B8E8B9E0A0EE66EAB
:1000D000E66AE66AE66A20D8E552E552E552E5525C
:1000E0001200D9CFE6FFE1CFD9FFFE0EDB50E8B01A
:1000F0008B8AE8A08B9A8B9CFD0EDB508C6EE4DF24
:1001000000018A5105E1FD0EDB38F00B8C6EDCDF5F
:10011000E552E7CFD9FF1200D9CFE6FFE1CFD9FFF3
:10012000E652D950FB0FE96EFF0EDA20EA6ED88056
:10013000000EEE54000EEE54000EEE54000EEE547F
:100140001AE2DF6ADF50026E036AD890035004E6B9
:10015000910E025C000E035802E2DF2AF3D7D95059
:10016000FB0FE96EFF0EDA20EA6EEE06000EEE5A85
:10017000EE5AEE5AD6D7E552E552E7CFD9FF120034
:10018000949A949C949E956A0F0EC16E1200C80EAC
:10019000E66EE66AE66AE66ABFDFE552E552E552D8
:1001A000E55200018A5106E1020EE66EE66A99DF29
:1001B000E552E5522FDF4DDF00018A5108E18E51F3
:1001C000E8240409E66EE66A8CDFE552E55244EF66
:1001D00000F0400EE66EE66A84DFE552E5520E0E50
:1001E000E66E010EE66E7DDFE552E5521F0EE66E0D
:1001F000010EE66E76DFE552E5521F0EE66E010E49
:10020000E66E6FDFE552E5521F0EE66E010EE66EFA
:1002100068DFE552E5521F0EE66E010EE66E61DF05
:10022000E552E5521F0EE66E010EE66E5ADFE5520C
:10023000E5520E0EE66E010EE66E53DFE552E55214
:10024000480EE66EE66A4DDFE552E552E66A010EBB
:10025000E66E47DFE552E552E66A010EE66E41DFE3
:10026000E552E5521F0EE66E010EE66E3ADFE552EC
:10027000E552080EE66E010EE66E33DFE552E552FA
:10028000040EE66E010EE66E2CDFE552E552020E1C
:10029000E66E010EE66E25DFE552E552010EE66ED2
:1002A000E66E1FDFE552E552500EE66EE66A19DF94
:1002B000E552E552E66A010EE66E13DFE552E552BD
:1002C000E66A010EE66E0DDFE552E5521F0EE66EA0
:1002D000010EE66E06DFE552E552E66A010EE66EB5
:1002E00000DFE552E552E66A010EE66EFADEE552FF
:1002F000E552E66A010EE66EF4DEE552E5521F0EA7
:10030000E66E010EE66EEDDEE552E552580EE66E43
:10031000E66AE7DEE552E552E66A010EE66EE1DEE8
:10032000E552E552E66A010EE66EDBDEE552E55285
:100330001F0EE66E010EE66ED4DEE552E552020EA9
:10034000E66E010EE66ECDDEE552E552040EE66E77
:10035000010EE66EC6DEE552E552080EE66E010EAF
:10036000E66EBFDEE552E552100EE66E010EE66E59
:10037000B8DEE552E552600EE66EE66AB2DEE552A0
:10038000E552E66A010EE66EACDEE552E5521B0E62
:10039000E66E010EE66EA5DEE552E5521F0EE66E34
:1003A000010EE66E9EDEE552E5520E0EE66E010E81
:1003B000E66E97DEE552E552040EE66E010EE66E3D
:1003C00090DEE552E552E66A010EE66E8ADEE552FF
:1003D000E552E66A010EE66E84DEE552E552680EED
:1003E000E66EE66A7EDEE552E552E66A010EE66EEC
:1003F00078DEE552E5520A0EE66E010EE66E71DE1B
:10040000E552E552150EE66E010EE66E6ADEE55225
:10041000E5520A0EE66E010EE66E63DEE552E55227
:10042000150EE66E010EE66E5CDEE552E552E66AFA
:10043000010EE66E56DEE552E552E66A010EE66E04
:1004400050DEE552E55212009BDEA1DEC2DE030E55
:10045000E66E800EE66E1FDEE552E552E66A010E9C
:10046000E66E3FDEE552E5520C0EE66E800EE66E5D
:1004700012DEE552E552E66A010EE66E32DEE55224
:10048000E552060EE66E800EE66E05DEE552E5529A
:10049000010EE66EE66E25DEE552E552070EE66ECB
:1004A000800EE66EF8DDE552E552020EE66E010EB4
:1004B000E66E17DEE552E552080EE66E800EE66E39
:1004C000EADDE552E552020EE66E010EE66E09DE49
:1004D000E552E552090EE66E800EE66EDCDDE55271
:1004E000E552030EE66E010EE66EFBDDE552E552C7
:1004F000010EE66E800EE66ECEDDE552E552050E8B
:10050000E66E010EE66EEDDDE552E5520E0EE66E8C
:10051000800EE66EC0DDE552E552050EE66E010E78
:10052000E66EDFDDE552E552200EE66E030EE66E66
:10053000E66AE66AF1DDE552E552E552E552010E62
:10054000E66E800EE66EA7DDE552E552200EE66E01
:10055000010EE66EC6DDE552E5520E0EE66E800E29
:10056000E66E99DDE552E552200EE66E010EE66E6E
:10057000B8DDE552E552640EE66EE66AE66AE66AC2
:10058000CBDDE552E552E552E5520E0EE66E800EE9
:10059000E66E81DDE552E552040EE66E010EE66E72
:1005A000A0DDE552E552200EE66E030EE66EE66A29
:1005B000E66AB2DDE552E552E552E55265DD040E2C
:1005C000E66EC00EE66E67DDE552E552E66A010EA4
:1005D000E66E87DDE552E5520B0EE66EC00EE66E66
:1005E0005ADDE552E552E66A010EE66E7ADDE55225
:1005F000E552070EE66EC00EE66E4DDDE552E552A1
:10060000010EE66EE66E6DDDE552E552080EE66E11
:10061000C00EE66E40DDE552E552030EE66E010EB9
:10062000E66E5FDDE552E552200EE66E030EE66EE5
:10063000E66AE66A71DDE552E552E552E55224DDEF
:0406400006D71200C7
:0C064400060EF66E000EF76E000EF86E4B
:1006500000010900F550856F0900F550866F03E130
:10066000856701D03DD00900F550806F0900F55035
:10067000816F0900F550826F09000900F550E96E9D
:100680000900F550EA6E090009000900F550836F72
:100690000900F550846F09000900F6CF87F0F7CF05
:1006A00088F0F8CF89F080C0F6FF81C0F7FF82C0E4
:1006B000F8FF0001835302E1845307E00900F5507D
:1006C000EE6E8307F8E28407F9D787C0F6FF88C08B
:1006D000F7FF89C0F8FF00018507000E865BBFD7D2
:0206E000120006
:0E06E200000EF36E00EE00F0060E01D81200BE
:1006F000EA6002D0EE6AFCD7F350E9601200EE6ABD
:02070000FCD724
:0E07020015EE00F025EE00F0F86A019C22ECE6
:0E07100003F08FEC03F024EC02F0FBD7120094
:02071E001200C7
:06072000010100010000D0
:00000001FF
