:020000040000FA
:0600000091EF01F0120077
:0A0006000100400300008A00000022
:0400100001000000EB
:0C001400D9CFE6FFE1CFD9FF030EE126B3
:10002000010EDF6EDB6ADB50040DF3CF00F0DF5012
:10003000080DF35030090010E76E020EE7CFDBFF2A
:10004000DBCFE6FF53D8E552030EE15C02E2E16A42
:10005000E552E16EE552E7CFD9FF1200D9CFE6FFB6
:10006000E1CFD9FF040EE126010EDF6EDB6A020E3E
:10007000DB6ADBCFE6FF010EDB50E824006EDF50C9
:10008000040DF35008090010E552E710E76E030E67
:10009000E7CFDBFFDBCFE6FF29D8E552040EE15CBA
:1000A00002E2E16AE552E16EE552E7CFD9FF1200C4
:1000B000D9CFE6FFE1CFD9FFFD0EDB500F0801E2FB
:1000C0000AD0FD0EDBCFE6FFFE0EDB50E552E72443
:1000D000E66E0CD8E552E552E7CFD9FF12008B8EC1
:1000E0008B9E010EE66E5DD8E5521200D9CFE6FF79
:1000F000E1CFD9FF8B9A8B9CFE0EDB508C6EEFDF2D
:10010000E552E7CFD9FF1200D9CFE6FFE1CFD9FF03
:100110008B8A8B9CFE0EDB508C6EE1DFE552E7CFC5
:10012000D9FF120000018A2B100E8A5D07E1E66AF2
:10013000C00EE66EBDDFE552E5520BD0200E8A5DA3
:1001400008E1E66A800EE66EB3DFE552E552000193
:100150008A6B1200D9CFE6FFE1CFD9FF020EE1266C
:10016000DE6ADD6ADECF00F0DDCF01F0026AD890F2
:100170000250010A06E6900E005C5F0E0158010E67
:10018000025805E2DF2A010E01E3DB2AEBD7020E5B
:10019000E15C02E2E16AE552E16EE552E7CFD9FFA8
:1001A0001200D9CFE6FFE1CFD9FF020EE126FE0E05
:1001B000DBCF00F0000EE76E0018E8AE02D000348E
:1001C00003D0E750D880005413E2DE6ADD6ADECF48
:1001D00000F0DDCF01F0DC0E005C050E015805E2F9
:1001E000DF2A010E01E3DB2AF2D7FE0EDB06DFD7A2
:1001F000020EE15C02E2E16AE552E16EE552E7CF10
:10020000D9FF1200949A949C949E956A0F0EC16E29
:100210001200C80EE66EC5DFE552FCDE2EEF00F0E0
:10022000F1DFF7DF520EE66E6FDFE552410EE66E4C
:100230006BDFE552510EE66E67DFE552550EE66E56
:1002400063DFE552450EE66E5FDFE5524C0EE66E6B
:100250005BDFE552E66A800EE66E2ADFE552E55284
:04026000E1D71200D0
:0C026400060EF66E000EF76E000EF86E2F
:1002700000010900F550856F0900F550866F03E114
:10028000856701D03DD00900F550806F0900F55019
:10029000816F0900F550826F09000900F550E96E81
:1002A0000900F550EA6E090009000900F550836F56
:1002B0000900F550846F09000900F6CF87F0F7CFE9
:1002C00088F0F8CF89F080C0F6FF81C0F7FF82C0C8
:1002D000F8FF0001835302E1845307E00900F55061
:1002E000EE6E8307F8E28407F9D787C0F6FF88C06F
:1002F000F7FF89C0F8FF00018507000E865BBFD7B6
:020300001200E9
:0E030200000EF36E00EE00F0060E01D81200A1
:10031000EA6002D0EE6AFCD7F350E9601200EE6AA0
:02032000FCD708
:0E03220015EE00F025EE00F0F86A049C32ECB7
:0E03300001F09FEC01F010EC01F0FBD7120081
:02033E001200AB
:0103400000BC
:00000001FF
