:020000040000FA
:0600000071EF01F0120097
:020006000000F8
:080008008B8E8B9E1200D9CFF4
:10001000E6FFE1CFD9FF020EE126010EDF6EDB6ABB
:100020008B9A8B9C8C9E8C9C8C8A8C88DF50E8B041
:100030008C86E8A08C96010EDB50E8B08C84E8A09A
:100040008C948C928C90E0DF020EE15C02E2E16A1B
:10005000E552E16EE552E7CFD9FF1200D9CFE6FFB6
:10006000E1CFD9FF030EE126010EDF6EDB6A020E3F
:10007000DB6A8B9A8B9C8C9E8C9C8C9A8C988C8641
:10008000DF50E8B08C84E8A08C94010EDB50E8B01F
:100090008C82E8A08C92020EDB50E8B08C80E8A045
:1000A0008C90B2DF030EE15C02E2E16AE552E16EA0
:1000B000E552E7CFD9FF1200D9CFE6FFE1CFD9FF54
:1000C0008B8A8B9CFE0EDB508C6E9EDFE552E7CF59
:1000D000D9FF1200D9CFE6FFE1CFD9FFFD0EDB50EB
:1000E0000F0801E20BD08B9A8B9CFD0EDBCFE6FF55
:1000F000FE0EDB50E552E7248C6E86DFE552E7CF3B
:10010000D9FF1200D9CFE6FFE1CFD9FF020EE126D9
:10011000DE6ADD6ADECF00F0DDCF01F0026AD89042
:100120000250010A06E6900E005C5F0E0158010EB7
:10013000025805E2DF2A010E01E3DB2AEBD7020EAB
:10014000E15C02E2E16AE552E16EE552E7CFD9FFF8
:100150001200D9CFE6FFE1CFD9FF020EE126FE0E55
:10016000DBCF00F0000EE76E0018E8AE02D00034DE
:1001700003D0E750D880005413E2DE6ADD6ADECF98
:1001800000F0DDCF01F0DC0E005C050E015805E249
:10019000DF2A010E01E3DB2AF2D7FE0EDB06DFD7F2
:1001A000020EE15C02E2E16AE552E16EE552E7CF60
:1001B000D9FF1200949A949C949E959E959C959A32
:1001C00095989596959495929590956A0F0EC16E17
:1001D0001200C80EE66EBDDFE55219DF2EEF00F00B
:1001E000E9DFF7DF520EE66E67DFE552410EE66E9D
:1001F00063DFE552510EE66E5FDFE552550EE66EA7
:100200005BDFE552450EE66E57DFE5524C0EE66EBB
:1002100053DFE552E66A800EE66E5CDFE552E5529A
:04022000E1D7120010
:0C022400060EF66E000EF76E000EF86E6F
:1002300000010900F550856F0900F550866F03E154
:10024000856701D03DD00900F550806F0900F55059
:10025000816F0900F550826F09000900F550E96EC1
:100260000900F550EA6E090009000900F550836F96
:100270000900F550846F09000900F6CF87F0F7CF29
:1002800088F0F8CF89F080C0F6FF81C0F7FF82C008
:10029000F8FF0001835302E1845307E00900F550A1
:1002A000EE6E8307F8E28407F9D787C0F6FF88C0AF
:1002B000F7FF89C0F8FF00018507000E865BBFD7F6
:0202C00012002A
:0E02C200000EF36E00EE00F0060E01D81200E2
:1002D000EA6002D0EE6AFCD7F350E9601200EE6AE1
:0202E000FCD749
:0E02E20015EE00F025EE00F0F86A049C12EC18
:0E02F00001F07FEC01F0F0EC00F0FBD7120003
:0202FE001200EC
:00000001FF
