:020000040000FA
:06000000D7EF02F0120030
:0A0006000100CC050000800000009E
:040010000C000000E0
:0C001400D9CFE6FFE1CFD9FFE652000192
:100020008651040DF3CF03F08551080DF3CF02F094
:100030008439F00B200902100310DF6E845106E1B1
:10004000020EE66EE66A5FD8E552E552DFCFE6FFC4
:10005000E66A59D8E552E552E552E552E7CFD9FFB5
:100060001200D9CFE6FFE1CFD9FFE6520001885157
:10007000E824026E8751040DF3500809021089111B
:10008000DF6E845108E18851E8240409E66EE66ACF
:100090003AD8E552E552DFCFE6FFE66A34D8E552BA
:1000A000E552E552E552E7CFD9FF1200010EE66EA8
:1000B000E66A29D8E552E5521200D9CFE6FFE1CF32
:1000C000D9FFFD0EDB500F0801E20CD0FD0EDBCF97
:1000D000E6FFFE0EDB50E552E724E66EE66A13D833
:1000E000E552E552E552E7CFD9FF12008B8E8B9E89
:1000F000010EE66EE66AE66AE66A20D8E552E55247
:10010000E552E5521200D9CFE6FFE1CFD9FFFE0E4E
:10011000DB50E8B08B8AE8A08B9A8B9CFD0EDB50FD
:100120008C6EE4DF0001845105E1FD0EDB38F00B3D
:100130008C6EDCDFE552E7CFD9FF1200D9CFE6FFA6
:10014000E1CFD9FFE652D950FB0FE96EFF0EDA205E
:10015000EA6ED880000EEE54000EEE54000EEE54FF
:10016000000EEE541AE2DF6ADF50026E036AD89086
:10017000035004E6910E025C000E035802E2DF2AEF
:10018000F3D7D950FB0FE96EFF0EDA20EA6EEE06C8
:10019000000EEE5AEE5AEE5AD6D7E552E552E7CFA8
:1001A000D9FF12009498949A949C949E9290929263
:1001B00092949380938293849386956A0F0EC16E76
:1001C0001200C80EE66EE66AE66AE66AB7DFE55236
:1001D000E552E552E5521EDF44DF56EF00F0D9CF7D
:1001E000E6FFE1CFD9FF020EE126DE52010EDD6E01
:1001F000DF6ADFCF02F0040EE76E0218E8AE02D02D
:10020000E73402D0E750025C25E2DFCFE9FFEA6A7B
:10021000E9BEEA68800EE926000EEA22EFCF02F07E
:10022000DFCFE9FFEA6AE9BEEA68960EE926000E2A
:10023000EA22EF50025C02E0010EDB6ADFCFE9FF49
:10024000EA6AE9BEEA68960EE926000EEA22EF6A3B
:10025000DF2ACFD7010EDBCFE6FF0BD8E552020E27
:10026000E15C02E2E16AE552E16EE552E7CFD9FFD7
:100270001200D9CFE6FFE1CFD9FF18DFE66A800E82
:10028000E66E1BDFE552E552FE0EDB502CE0410E20
:10029000E66E010EE66E37DFE552E552430EE66E7E
:1002A000010EE66E30DFE552E552450EE66E010EB8
:1002B000E66E29DFE552E552490EE66E010EE66E66
:1002C00022DFE552E552540EE66E010EE66E1BDFAC
:1002D000E552E5524F0EE66E010EE66E14DFE55272
:1002E000E5528B882AD04E0EE66E010EE66E0BDFCD
:1002F000E552E552450EE66E010EE66E04DFE5526C
:10030000E552470EE66E010EE66EFDDEE552E55261
:10031000410EE66E010EE66EF6DEE552E552440E43
:10032000E66E010EE66EEFDEE552E5524F0EE66E2A
:10033000010EE66EE8DEE552E552E80EE66E030ECB
:10034000E66EE66AE66AFADEE552E552E552E55205
:10035000ADDE8B98E552E7CFD9FF1200D9CFE6FF8B
:10036000E1CFD9FF8AC0E9FFEA6AE9BEEA68960EE2
:10037000E926000EEA22FE0EDBCFEFFFFE0EDBCFFA
:10038000E6FF010EE66EBFDEE552E55200018A2B64
:10039000040E8A5D02E18A6B22DFE552E7CFD9FFC6
:1003A0001200D9CFE6FFE1CFD9FF030EE12681503D
:1003B000010B0AE08150020B07E08150040B04E0BE
:1003C0008150080B01E04DD081B00AD0310EDF6EB4
:1003D000DE52320EDD6E330EF36E020EF3CFDBFF14
:1003E00081B20AD0340EDF6EDE52350EDD6E360E6F
:1003F000F36E020EF3CFDBFF81B40AD0370EDF6E4F
:10040000DE52380EDD6E390EF36E020EF3CFDBFFD7
:1004100081B60AD02A0EDF6EDE52300EDD6E230E5C
:10042000F36E020EF3CFDBFF8150010B09E0815028
:10043000020B06E08150040B03E08150080B01E140
:10044000F3D7D9CF02F0DACF03F0FD0EDB50022450
:10045000E96EFE0EDB500320EA6EEF50E66E7EDFA3
:10046000E552030EE15C02E2E16AE552E16EE5521B
:10047000E7CFD9FF120000018B5104E189908982F6
:1004800089840CD08B0504E189808992898406D007
:10049000020E8B5D03E18980898289948BC002F012
:1004A000036A02BE036802C0E6FF03C0E6FF79DF0D
:1004B000E552E55200018B2B020EE76E8B19E8AE78
:1004C00002D08B3503D0E750D8808B5501E28B6B7F
:1004D000120068DE76DE010EE66EE66AE66AE66A1D
:1004E0002DDEE552E552E552E552C5DFF4D71200A4
:1004F000060EF66E000EF76E000EF86E0001090093
:10050000F550916F0900F550926F03E1916701D0AA
:100510003DD00900F5508C6F0900F5508D6F090032
:10052000F5508E6F09000900F550E96E0900F5508D
:10053000EA6E090009000900F5508F6F0900F550B7
:10054000906F09000900F6CF93F0F7CF94F0F8CF41
:1005500095F08CC0F6FF8DC0F7FF8EC0F8FF00014C
:100560008F5302E1905307E00900F550EE6E8F07BC
:10057000F8E29007F9D793C0F6FF94C0F7FF95C053
:0E058000F8FF00019107000E925BBFD712003A
:02058E00000E5D
:10059000F36E00EE00F0060E01D81200EA6002D001
:0E05A000EE6AFCD7F350E9601200EE6AFCD759
:0205AE0015EE48
:1005B00000F025EE00F0F86A019C78EC02F0E5EC22
:0A05C00002F069EC02F0FBD7120014
:0205CA0012001D
:0405CC003132332372
:0805D000000100010000000021
:00000001FF
